:100000000C942A000C9434000C9434000C943400AA
:100010000C9434000C9434000C9434000C94340090
:100020000C9434000C9434000C9434000C94340080
:100030000C9434000C9434000C9434000C94340070
:100040000C9434000C9434000C9434000C94340060
:100050000C94340011241FBECFE5D8E0DEBFCDBF25
:100060000E94FE010C9403020C940000DF93CF93D6
:1000700000D000D00F92CDB7DEB789836A834B835F
:100080008981282F30E03D832C838C819D818230B3
:10009000910509F444C02C813D812330310534F4AD
:1000A0008C819D818130910571F0BCC02C813D8196
:1000B0002330310509F45FC08C819D818430910526
:1000C00009F485C0AFC08B818130A1F4AAE3B0E010
:1000D000EAE3F0E08081482F8A81282F30E081E038
:1000E00090E0022E02C0880F991F0A94E2F7842B39
:1000F0008C9398C0AAE3B0E0EAE3F0E08081482F57
:100100008A81282F30E081E090E0022E02C0880F23
:10011000991F0A94E2F7809584238C9383C08B8186
:100120008130A1F4A7E3B0E0E7E3F0E08081482F5D
:100130008A81282F30E081E090E0022E02C0880FF3
:10014000991F0A94E2F7842B8C936CC0A7E3B0E06C
:10015000E7E3F0E08081482F8A81282F30E081E0BA
:1001600090E0022E02C0880F991F0A94E2F7809552
:1001700084238C9357C08B818130A1F4A4E3B0E039
:10018000E4E3F0E08081482F8A81282F30E081E08D
:1001900090E0022E02C0880F991F0A94E2F7842B88
:1001A0008C9340C0A4E3B0E0E4E3F0E08081482F0A
:1001B0008A81282F30E081E090E0022E02C0880F73
:1001C000991F0A94E2F7809584238C932BC08B812E
:1001D0008130A1F4A1E3B0E0E1E3F0E08081482FB9
:1001E0008A81282F30E081E090E0022E02C0880F43
:1001F000991F0A94E2F7842B8C9314C0A1E3B0E01A
:10020000E1E3F0E08081482F8A81282F30E081E00F
:1002100090E0022E02C0880F991F0A94E2F78095A1
:1002200084238C930F900F900F900F900F90CF918D
:10023000DF910895DF93CF9300D000D00F92CDB718
:10024000DEB789836A834B838981282F30E03D8321
:100250002C838C819D818230910509F444C02C81CE
:100260003D812330310534F48C819D8181309105AD
:1002700071F0BCC02C813D812330310509F45FC091
:100280008C819D818430910509F485C0AFC08B813C
:100290008130A1F4ABE3B0E0EBE3F0E08081482FE4
:1002A0008A81282F30E081E090E0022E02C0880F82
:1002B000991F0A94E2F7842B8C9398C0ABE3B0E0CB
:1002C000EBE3F0E08081482F8A81282F30E081E045
:1002D00090E0022E02C0880F991F0A94E2F78095E1
:1002E00084238C9383C08B818130A1F4A8E3B0E098
:1002F000E8E3F0E08081482F8A81282F30E081E018
:1003000090E0022E02C0880F991F0A94E2F7842B16
:100310008C936CC0A8E3B0E0E8E3F0E08081482F64
:100320008A81282F30E081E090E0022E02C0880F01
:10033000991F0A94E2F7809584238C9357C08B8190
:100340008130A1F4A5E3B0E0E5E3F0E08081482F3F
:100350008A81282F30E081E090E0022E02C0880FD1
:10036000991F0A94E2F7842B8C9340C0A5E3B0E078
:10037000E5E3F0E08081482F8A81282F30E081E09A
:1003800090E0022E02C0880F991F0A94E2F7809530
:1003900084238C932BC08B818130A1F4A2E3B0E045
:1003A000E2E3F0E08081482F8A81282F30E081E06D
:1003B00090E0022E02C0880F991F0A94E2F7842B66
:1003C0008C9314C0A2E3B0E0E2E3F0E08081482F18
:1003D0008A81282F30E081E090E0022E02C0880F51
:1003E000991F0A94E2F7809584238C930F900F90C5
:1003F0000F900F900F90CF91DF910895DF93CF93DF
:0A040000CDB7DEB7FFCFF894FFCFB1
:00000001FF
